:020000040800F2
:1000000000000524DD370008892800089128000831
:1000100099280008A1280008A9280008000000006D
:10002000000000000000000000000000C1F903080B
:10003000B128000800000000E1FB030849FC0308A8
:100040002D3800082D3800082D3800082D380008FC
:100050002D3800082D3800082D3800082D380008EC
:100060002D3800082D3800082D380008C128000858
:10007000D5280008E9280008FD28000811290008F3
:1000800025290008392900082D3800084D290008C5
:10009000612900082D3800082D3800082D38000887
:1000A0002D3800082D3800082D3800082D3800089C
:1000B0002D3800082D380008752900082D38000853
:1000C0002D3800082D3800082D3800082D3800087C
:1000D000892900089D2900082D3800082D380008BE
:1000E000B12900082D380008000000002D38000854
:1000F0002D3800082D3800082D380008C9290008BF
:100100002D3800082D3800082D3800082D3800083B
:100110002D380008DD2900082D3800082D3800088A
:10012000F1290008052A0008192A00082D380008BE
:100130002D3800082D3800082D3800082D3800080B
:1001400000000000000000000000000000000000AF
:100150002D3800082D3800082D3800082D380008EB
:100160002D3800082D3800082D2A0008412A0008E3
:100170002D380008552A00082D380008000000001E
:100180002D3800082D380008692A00082D3800088D
:100190002D3800082D3800087D2A00082D38000869
:1001A0002D3800082D3800082D3800080000000008
:1001B0002D3800082D3800082D3800082D3800088B
:1001C0002D3800082D380008000000000000000055
:1001D00000000000000000002D38000800000000B2
:1001E000000000000000000000000000000000000F
:1001F00000000000000000002D3800082D38000825
:100200002D3800082D380008000000002D380008A7
:100210002D3800082D3800082D3800082D3800082A
:100220002D380008000000002D38000800000000F4
:100230002D3800082D380008000000002D38000877
:100240002D3800082D3800082D3800082D380008FA
:100250002D3800082D3800082D3800082D380008EA
:100260002D3800082D3800082D3800082D380008DA
:100270002D3800082D3800082D3800080000000037
:100280002D3800082D3800082D3800082D380008BA
:10029000000000002D3800082D3800080000000084
:1002A000000000002D3800082D3800082D38000807
:1002B000912A00082D3800082D380008A52A0008CA
:0C02C0002D3800082D3800082D380008EB
:1002D00010B5054C237833B9044B13B10448AFF380
:1002E00000800123237010BD900200240000000054
:1002F0002C12040808B5034B1BB103490348AFF3A4
:10030000008008BD00000000940200242C120408A4
:1003100053B94AB9002908BF00281CBF4FF0FF316C
:100320004FF0FF3001F052B9ADF1080C6DE904CE89
:1003300000F006F8DDF804E0DDE9022304B07047C0
:100340002DE9F047089D8E4604468846002B4AD189
:100350008A42174662D9B2FA82F64EB1C6F120033C
:1003600001FA06F820FA03F3B74043EA0808B4405C
:100370004FEA174E1FFA87FCB8FBFEF1230C0EFB69
:10038000118843EA084301FB0CF29A4209D9FB1891
:1003900001F1FF3080F0EA809A4240F2E7800239B2
:1003A0003B449A1AA3B2B2FBFEF00EFB102243EAC2
:1003B000024300FB0CFC9C4509D9FB1800F1FF32FD
:1003C00080F0D6809C4540F2D3803B44023840EA1E
:1003D0000140A3EB0C0300211DB1F3400022C5E94D
:1003E0000032BDE8F0878B4205D90DB1C5E90001A7
:1003F00000210846F5E7B3FA83F1002946D1734599
:1004000002D3824200F20581841A6EEB03020120BE
:100410009046002DE5D0C5E90048E2E7002A00F04B
:100420009080B2FA82F6002E40F0A4808A1A030C63
:100430004FEA174E80B2BCB20121B2FBFEFC0EFBAC
:100440001C2243EA024304FB0CF29A4207D9FB1830
:100450000CF1FF3802D29A4200F2E080C4469B1AA7
:10046000B3FBFEF20EFB123340EA034302FB04F43B
:100470009C4207D9FB1802F1FF3002D29C4200F2E5
:10048000CA8002461B1B42EA0C40A5E7C1F12006C8
:100490008B4022FA06F71F430EFA01F420FA06F306
:1004A0002EFA06FE4FEA1749234300FA01F81FFA15
:1004B00087FCBEFBF9F01C0C09FB10EE44EA0E446D
:1004C00000FB0CFEA64502FA01F209D93C1900F125
:1004D000FF3A80F09C80A64540F2998002383C4467
:1004E000A4EB0E041FFA83FEB4FBF9F309FB1344DB
:1004F0004EEA044403FB0CFCA44508D93C1903F163
:10050000FF3E80F08280A4457FD9023B3C4443EA11
:100510000040A4EB0C04A0FB02EC64457346E146EA
:1005200062D35FD05DB1B8EB030264EB090404FA57
:1005300006F622FA01F31E43CC40C5E9006400210F
:100540004FE7B1FBF2FC010C41EA0E4180B240EAF8
:1005500001423B4638463C46B846BE462026B1FBE3
:10056000F7F1A2EB080241EA0C4166E7014618E701
:1005700010462CE7C6F120022EFA02F3B740B14034
:1005800020FA02F24FEA174E0A43B3FBFEF8BCB260
:100590000EFB1833110C41EA034108FB04F9B0408B
:1005A00089454FEA104380B23ED9791808F1FF3CE3
:1005B00001D289451FD8A1EB0901B1FBFEF909FB66
:1005C00004F80EFB191192B242EA0142424529D2C7
:1005D000BA1809F1FF31C4D24245C2D2A9F10201D1
:1005E0003A44BEE7F0459DD2BEEB02036CEB070C2C
:1005F0000138E14696E7A7EB09094944A8F1020C46
:10060000B1FBFEF909FB04F8DBE773467FE75046D0
:1006100066E70846FDE63B44023A33E7ACF1020CDC
:100620003B441CE749469CE7A1EB0901C446B1FBEA
:10063000FEF909FB04F8C4E703685A004CBF43F015
:10064000004323F000431844704700BF2DE9F047F2
:1006500059B301F1FF380546164647464FF0000AE8
:100660000AEB070101EBD171491005EBC1094846BE
:10067000FFF7E2FF88454FEAC104034610D004F1BA
:100680000800B342284407D8FFF7D6FF0138B0422C
:1006900008D201F1010AE3E78A4506D04F1EDFE7E1
:1006A000B042F9D84846BDE8F0874FF00009484607
:1006B000BDE8F087012809D0022805D0044B0028A6
:1006C0000CBF184600207047024870470248704728
:1006D000990D0008A10D00089D0D000830B5224BB2
:1006E00083B004468D1E43B301A92846AFF30080B2
:1006F000F0B101992A46FFF7A9FF0146C0B1FFF703
:100700009BFF4B68A064012B2BD0002B01F1040050
:1007100025DBFFF791FF002323650368E064002BCE
:1007200012DBFFF789FF03460020236103B030BDD1
:1007300000230920236103B030BD0C4B0C49C91ABA
:10074000C91018460191D5E7C3F30360FFF7B2FF64
:10075000031E0CBF09200020236103B030BD01231C
:10076000DAE700230520E0E7000000001447040852
:10077000446604080368DA0710B5044606D49B07EC
:1007800000F1500009D500F08FFC2368590709D506
:100790001A070ED5DB0613D510BD00F07DFC2368CB
:1007A0005907F5D404F1D80000F086FC23681A0735
:1007B000F0D404F5AC7000F087FC2368DB06EBD4C2
:1007C00004F5EC70BDE8104000F0C2BC03460068C0
:1007D00000B11844704700BF09207047704700BF40
:1007E00070B504460E46316C2046FFF777FF05468C
:1007F00088B9326C626123693246214601209847EC
:100800000828F0D0072806D12846316CFFF7E6FF0C
:10081000301D00F035FC40F03FFA00BF2DE9F047F5
:1008200001F1040CC768D0F8188006469146BCE870
:100830000F00ADF5767D03AC0FC4BCE80F000FC40C
:10084000BCE80F000FC49CE80F0002AD4FF0000E93
:1008500084E80F00C5F800E021E02B6C73614FF4D1
:10086000F47229467CA840F07DFC33697CAA3146AD
:10087000504698478A9BAB644946CDE9005882466A
:10088000334601203246B847814630BB4FF4F472FC
:100890007CA9284640F066FCBAF1080F1AD1296CF1
:1008A0003046FFF71BFF09F1090904465FFA89FA90
:1008B0000028D2D0AB6BAB643246CDE9005833464A
:1008C0004AF010010120B84738B920460DF5767D71
:1008D000BDE8F087BAF1070F05D0092420460DF5D1
:1008E000767DBDE8F0874846296CFFF777FF03A8BF
:1008F00000F0C6FB806C7047F0B5CB6BFBB001F12C
:10090000040C0B640E460546BCE80F0001AC0FC496
:10091000BCE80F000FC4BCE80F000FC49CE80F0038
:100920004FF0FF3784E80F00009706E02B696A4616
:10093000294698470828044608D110992846FFF709
:10094000CDFE0028F2D009207BB0F0BD6846FFF74D
:1009500011FF062CF7D131462846FFF741FF00BFB3
:10096000C160D96B826119640022194656E700BF45
:1009700070B5C66843690B64AEB903690A4604469C
:100980000D46014602209847072805D008280FD1B8
:1009900029462046FFF724FF3046296CFFF71EFF4B
:1009A000281D00F06DFB0122FFF738FF40F074F9BD
:1009B00040F072F9C2681AB1CA6B0A6400222DE7CE
:1009C0009AE700BF704700BF836801460BB1012062
:1009D00018477047052915D8DFE801F00A0314030A
:1009E000030501207047009A436C13600020704794
:1009F00043B90F2A06D800EB820200205368009A00
:100A0000136070470220704700B585B00A46002386
:100A100003A900911946FFF7DDFF039805B05DF8C3
:100A200004FB00BF052915D8DFE801F00A03140311
:100A3000030501207047009B1B684364002070473A
:100A400043B90F2A06D8009B00EB82021B68536053
:100A5000002070470220704710B584B0002303AC1B
:100A6000039200940A461946FFF7DCFF04B010BD5C
:100A700070B5D36BADF5107D02F1040C136405461F
:100A80000C46BCE80F000DF15C0EAEE80F00BCE8B0
:100A90000F00AEE80F00BCE80F00AEE80F009CE8C6
:100AA0000F004FF0FF368EE80F00169610E0FFF7AC
:100AB000D3FF214616A8A847034616AA0820694670
:100AC00083B9049B9847052806460CD0092809D00D
:100AD00026996846FFF702FE03460C216A4616A8CF
:100AE000002BE4D0092616A8FFF744FE30460DF58A
:100AF000107D70BD2DE9F04F1646CA6C89B00D46C9
:100B000052F8041B069200F0030C002B79D00C0C59
:100B10008DF81D400904E4B2059102EB8402022124
:100B20008DF81C10296DBCF1020F08BFAA6B11F0E3
:100B3000010809D005A9304600F0A4FB002856D1D1
:100B4000082009B0BDE8F08F1768002FF2D000F040
:100B50000801CDE90118E3469A46BAF1020F4CD0DC
:100B60001788548802F10409AA6C24F001030F21AC
:100B7000304603EB0208FFF747FF80453BD827F0DC
:100B8000010202EB0803834294BF002301236400A7
:100B900004F0020407F001072743012F4ED0022F73
:100BA00035D027BBBBF1000F02D0002B40F0D38023
:100BB00009F104021768002FCFD105A93046DDF8EE
:100BC000088000F05FFB90B9B8F1000FB8D00F219A
:100BD0003046FFF719FF0E2102463046FFF73CFF73
:100BE0006C4A0F213046FFF737FF072000E009204D
:100BF00009B0BDE8F08F0023C9E7546802F1080985
:100C0000B2E7090205918DF81D30032188E7D9F874
:100C1000004024F00048BBF1000F47D12BB1019BED
:100C2000002B5CD0B8F1000F59D0002C01DA09F18B
:100C3000040908F1010209EB8202BBE7BBF1000FD6
:100C40001CD1C3B1D9F80430D9F80020991C4FEA5F
:100C5000D272CCD005F158040133049400F08E8098
:100C600009F10400FFF7B2FD04AB014628463FF04E
:100C700069F8002859D109F108029BE70D21304697
:100C8000FFF7C2FE2C6A8442F5D1AB6A9945F2D1D6
:100C90004846FFF7D1FC0F2102463046FFF7DCFE45
:100CA0002A4600213046FFF7D7FE9EE70D21304649
:100CB000FFF7AAFE2F6A8742B7D1AB6A9945B4D134
:100CC00000240423C5E90B434B44C5F828806B631B
:100CD000D9F80030A34258DB01230293A9E705F1BC
:100CE0005803CDF80CB009F10407B34600241E46A2
:100CF0000BE038460496FFF769FD0022014604AB7D
:100D000028463FF01FF80437F8B9444504F10104C0
:100D1000EFD10D215846FFF777FE049BC5F82890C8
:100D20000246C5E90823062062E704460D21304645
:100D3000FFF76AFE049E2862022C04BFEE6205F1F2
:100D40002C06C5E90969062052E75E46D9F800403D
:100D5000DDF80CB069E74846FFF76EFC09F10403C3
:100D60000446AB6328463FF03FF800283FF43FAF0E
:100D700022460F213046FFF76FFE36E730460D2141
:100D8000FFF742FE26462862DBE708F1010209EB85
:100D900082007EE7390C04080023ABE60123A9E6B4
:100DA0000223A7E62DE9F0410646C4B01446052902
:100DB00000F2E880DFE811F012002D00E600660086
:100DC0008B000600836B002C40F0DC8053F8042B72
:100DD00042648363002044B0BDE8F081002B40F002
:100DE000D180856B1FFA84FC012006F1040E00FA05
:100DF00003F111EA0C0F2A4604D052F8041B4EF8F6
:100E0000231015460133102BF1D1A704E2D4B563AA
:100E1000E0E7012B4FEA1447A4B27CD0052B40F049
:100E2000B18007EB0408B8F1200F00F2AB800F2F60
:100E300040F2AA80002CCDD00268550700F1FF8057
:100E4000019302AD284600F03BF96400A7F11000C1
:100E5000B26B019B611E05EBC0000131043802EB4F
:100E6000810152F8044B40F8044F8A42F9D1012B1A
:100E700000F0CD800F2FB26340F2E980284600F0E9
:100E80001BF9A7E7032B7DD1A7B207EB1443102B67
:100E90004FEA144476D80368190700F1A48022AD04
:100EA000284600F033F97A00B06B05EBC404531EFA
:100EB00042B1011B625844F8042B013B5A1CF9D182
:100EC00000EBC700B063284600F0FEF882E7002B75
:100ED00058D1102C56D80368D8067CD422AD2846A9
:100EE00000F040F9B76B294600234FF0010C0CFAD3
:100EF00003F22242384603F1010303D050F8042BD9
:100F00000A600746042B01F10401F0D1B7632846BB
:100F100000F01EF95EE73A19102A33D8102F31D0AD
:100F20000268D10708D5304622F0030240F8502B62
:100F3000019300F0B5F8019B019322AD284600F023
:100F4000AFF8B16B019B002C62D06200013A05EB57
:100F5000C7004FF000080132043801EB820251F85B
:100F6000044B40F8044F9142F9D1B8F1000F42D13F
:100F7000012B4DD00F2FB1633FF62CAF284600F068
:100F800093F827E7022026E70268B8F1100F02F075
:100F9000010143D951B122F0010242F0020240F8AE
:100FA000502B019300F084F83268019B01935007A5
:100FB00051D422AD284600F07BF802A800F080F85A
:100FC000C7F110025200B16B019BA8F11008013A61
:100FD00005EBC700BFE723F01003336006F5EC70A4
:100FE00000F0C0F87AE723F00803036000F5AC7066
:100FF00000F08CF853E7102F384638BF10204FEA26
:101000004801103802AD013905EBC00025E722ADDB
:101010000431B163284600F03FF8DBE619BB22AD8E
:101020002846019300F044F8B16B002CA6D0620072
:10103000019B013A05EBC7004FF000088BE722F057
:10104000040240F8D82B019300F03AF8F9E622A800
:1010500000F02AF812E7304622F0040240F8D82BBC
:1010600000F02EF8A5E7304622F0010242F002021D
:1010700040F8502B019300F01BF8019BCFE700BF15
:1010800000F1340191E838009C46A6464CF8045D16
:1010900090E8FF0FE54600BD90EC210B704700BFC4
:1010A00080EC210B704700BF90EC200B704700BF15
:1010B00080EC200B704700BFD0EC200B704700BFC6
:1010C000C0EC200B704700BFF0EC0201F0EC021105
:1010D000F0EC0221F0EC0231F0EC0241F0EC0251B4
:1010E000F0EC0261F0EC0271F0EC0281F0EC0291A4
:1010F000F0EC02A1F0EC02B1F0EC02C1F0EC02D194
:10110000F0EC02E1F0EC02F1704700BFE0EC02010C
:10111000E0EC0211E0EC0221E0EC0231E0EC0241F3
:10112000E0EC0251E0EC0261E0EC0271E0EC0281E3
:10113000E0EC0291E0EC02A1E0EC02B1E0EC02C1D3
:10114000E0EC02D1E0EC02E1E0EC02F1704700BF1C
:10115000B0FC0181B0FC0191B0FC01A1B0FC01B177
:10116000704700BFA0FC0181A0FC0191A0FC01A17F
:10117000A0FC01B1704700BFEC4600B52DE900505E
:101180002DE9FF1F4FF000032DE90C0001A9FFF727
:10119000B3FBDDF840E012B0704700BFEC4600B58D
:1011A0002DE900502DE9FF1F4FF000032DE90C0041
:1011B00001A9FFF7DDFBDDF840E012B0704700BF8A
:1011C000EC4600B52DE900502DE9FF1F4FF000035C
:1011D0002DE90C0001A9FFF7EDFBDDF840E012B0AE
:1011E000704700BFEC4600B52DE900502DE9FF1F08
:1011F0004FF000032DE90C0001ABFFF7B1FBDDF868
:1012000040E012B0704700BFEC4600B52DE9005039
:101210002DE9FF1F4FF000032DE90C0001AAFFF795
:1012200027FCDDF840E012B0704700BF027A0346A9
:101230007AB9427AA2B14168013A10B442720868A0
:1012400003220C1D1A7202025C60000E10BC1A60B0
:1012500070470068013A1A7202021A60000E704765
:10126000B020704700B585B003AA0023009219464C
:101270000C22FFF7AFFB039805B05DF804FB00BF3D
:10128000F0E700BF2DE9F043064685B00D464FF06C
:1012900000082846FFF7CAFFB028044600F01C816A
:1012A00007065BD500F0F003A02B1AD030D8802BB6
:1012B00000F08280902B27D100F00D030D2B23D05E
:1012C00002AF002300F00F02194600973046FFF7E7
:1012D00081FB002300970D2219463046FFF7A2FB41
:1012E000D7E7C34303F007034FF47F621A410107B6
:1012F00002F47F6201D542F4804200231946304651
:10130000FFF750FD0028C4D0092005B0BDE8F083E8
:10131000B02B68D0C02B3DD1C62800F0CA80C728AA
:1013200000F0DF8000F0F803C02B00F0EC80C8284C
:1013300000F0F780C928E7D12846FFF777FF0203BE
:1013400000F00F0002F47022013002430121052356
:101350003046FFF727FD00289BD0D5E78300DBB29E
:101360001F1D0DF1080900231946CDF800900D222C
:101370003046FFF72FFB029BCDF8009060064CBF74
:10138000DF1BFF1800230D22194630460297FFF796
:1013900049FB7EE700F0F803D02BB5D100F007023F
:1013A0000132052342F4002201213046FFF7FAFC06
:1013B00000283FF46EAFA7E72846FFF737FF240267
:1013C0002043B0F5004F9FD004010023A2B219467C
:1013D0003046FFF7E7FC002896D114F4004F18BF01
:1013E0004FF0010855E7A0F1B103042B00F2B580DE
:1013F000DFE803F05529160C030003AA002300922E
:1014000019460D223046FFF7E5FA42E700231A4657
:1014100005213046FFF7C6FC00283FF43AAF73E7DA
:101420002846FFF703FF020300F00F00013002F42B
:1014300070220123024319463046FFF7B3FC00280F
:101440003FF427AF60E700230DF108090D2219468C
:10145000CDF800903046FFF7BDFA2846FFF7E6FECC
:101460000206029C4FF002070BD500F07F00B84047
:10147000044428460294FFF7D9FE030607F1070744
:10148000F3D4B840002304F501740444CDF800906F
:101490000D22194630460294FFF7C4FAF9E62846B1
:1014A000FFF7C4FE431EDBB20E2B02467FF625AFCC
:1014B0002AE72846FFF7BAFE020300F00F000130CA
:1014C00002F470220323024319463046FFF76AFCF8
:1014D00000283FF4DEAE17E7B8F1000F2DD0002052
:1014E00013E72846FFF7A2FE431EDBB20E2B02468F
:1014F0003FF60AAF002304213046FFF753FC0028D3
:101500003FF4C7AE00E700F00F020132032342F4BC
:10151000202219463046FFF745FC00283FF4B9AEBB
:10152000F2E62846FFF782FE00F0F00200F00F031B
:101530001032013343EA023208E702AC4346414627
:1015400000940E223046FFF745FA0F2200944346DE
:1015500041463046FFF766FAC1E700F0FC03B42BC2
:101560003FF4D2AE00F007020132012342F4002220
:1015700019463046FFF716FC00283FF48AAEC3E652
:1015800010B5C26C536884B04FF0030C08321C02D3
:1015900008461B0E01A9019402928DF80CC08DF82B
:1015A0000D30FFF76FFE04B010BD00BF08B5FFF7A8
:1015B00067FE806C08BD00BF08B5FFF761FEC06C18
:1015C000C37900EB8300083008BD00BF704700BF3F
:1015D00010F8012B11F8013B012A28BF9A42F7D0DD
:1015E000D01A704780B485B000AFF860B9607A60F7
:1015F000FB68074A1A60BB68064A1A607B6880224B
:101600001A6000BF1437BD465DF8047B704700BF09
:10161000B88201242C83012480B485B000AFF86027
:10162000B9607A60FB68074A1A60BB68064A1A60AC
:101630007B684FF480721A6000BF1437BD465DF8B6
:10164000047B70472C850124A0850124B0B500AF30
:101650002BF0BEF903464FF47A7203FB02F2064BFD
:101660001B685B6A134400221C461546034BC3E902
:10167000004500BFB0BD00BF648F0124B0820124CB
:10168000B0B582B000AF2BF0A3F903464FF47A72E5
:1016900003FB02F2094B1B685B6A134400221C46E1
:1016A0001546C7E900453968054BD3E900231346C1
:1016B000CB1A18460837BD46B0BD00BF648F012461
:1016C000B082012480B500AF2A4B5B6903F400337C
:1016D000002B14BF01230023DBB2002B1BD1BFF36F
:1016E0004F8F00BFBFF36F8F00BF224B0022C3F8A4
:1016F0005022BFF34F8F00BFBFF36F8F00BF1D4B52
:101700005B691C4A43F400335361BFF34F8F00BF42
:10171000BFF36F8F00E000BF2BF00AF900F06EFD01
:1017200000F0DEFD00F07AFC00F0DAF900F024F8B9
:1017300000F09EF801F092FA01F0EAFA00F028FEBB
:1017400000F07EFE01F0DCFB01F02AFC01F074FCED
:1017500001F0BEFC00F044FA00F0A6FA00F00AFB2B
:1017600002F066F804F0D2FD00F00CFE4FF0FF33FB
:10177000184680BD00ED00E080B58CB000AF07F1E9
:10178000240300221A605A609A603B4624220021FA
:1017900018463FF03FFC334B334A1A60314B4FF44D
:1017A00010125A602F4B00229A602E4B00221A61B1
:1017B0002C4B04225A612B4B00221A76294B012212
:1017C0005A76284B0122DA61264B002283F820202A
:1017D000244B00229A62234B0022DA62214B03221F
:1017E0001A63204B0022DA631E4B00221A641D4B41
:1017F000002283F844201B4B01229A6419482BF0E5
:101800007BFC0346002B01D000F0BCFD00237B6273
:1018100007F12403194613482BF046F90346002B21
:1018200001D000F0AFFD114B3B6006237B60042329
:10183000BB6040F2FF73FB6004233B6100237B61CC
:10184000002387F821303B46194606482BF05CFE02
:101850000346002B01D000F095FD00BF3037BD4698
:1018600080BD00BFA0890124002002401000C010EC
:1018700080B58AB000AF3B1D2422002118463FF0FE
:10188000C9FB324B324A1A60304B4FF410125A6087
:101890002E4B08229A602D4B0022DA602B4B00223F
:1018A0001A612A4B04225A61284B00221A76274BD0
:1018B00000225A76254B0122DA61244B012283F85B
:1018C0002020224B01225A62204B00229A621F4B99
:1018D0000022DA621D4B002283F838201B4B0022C5
:1018E0005A631A4B03221A63184B0022DA63174B10
:1018F00000221A64154B002283F84420134B002267
:101900009A6412482BF0F8FB0346002B01D000F03C
:1019100039FD104B7B600623BB600723FB6040F260
:10192000FF733B6104237B610023BB6100233B62A7
:101930003B1D194605482BF0E7FD0346002B01D05F
:1019400000F020FD00BF2837BD4680BD108A01246D
:1019500000600258000052C780B58AB000AF7860BE
:1019600007F1140300221A605A609A60DA601A6163
:101970007B681B68524A93425AD1524BD3F8D830F5
:10198000504A43F02003C2F8D8304E4BD3F8D83039
:1019900003F020033B613B694A4BD3F8E030494AEE
:1019A00043F00403C2F8E030464BD3F8E03003F0D4
:1019B0000403FB60FB6810237B610323BB610023EE
:1019C000FB6107F1140319463F4830F087FD3F4B98
:1019D0003F4A1A603D4B09225A603C4B00229A60F4
:1019E0003A4B0022DA60394B4FF480621A61374B70
:1019F0004FF400625A61354B4FF400529A61334BF9
:101A00004FF48072DA61314B00221A622F4B0022B0
:101A10005A622E482CF076FC0346002B01D000F0D1
:101A2000B1FC7B68294A9A65284A7B68936342E047
:101A30007B681B68274A93423DD1224BD3F8E030A4
:101A4000204A43F08073C2F8E0301E4BD3F8E030F8
:101A500003F08073BB60BB681F4B204A1A601E4BAB
:101A600073225A601C4B00229A601B4B0022DA60E2
:101A7000194B4FF480621A61174B4FF400625A61A0
:101A8000154B4FF400529A61134B0022DA61124B4E
:101A900000221A62104B00225A620F482CF032FCCE
:101AA0000346002B01D000F06DFC7B680A4A9A6562
:101AB000094A7B68936300BF2837BD4680BD00BFDD
:101AC000002002400044025800080258808A012485
:101AD0005800024000600258F88A012410000240B9
:101AE00080B582B000AF3D4BD3F8D8303B4A43F0CD
:101AF0000103C2F8D830394BD3F8D83003F00103D2
:101B00007B607B68354BD3F8D830344A43F002030E
:101B1000C2F8D830314BD3F8D83003F002033B6021
:101B20003B68002205210B202CF0C4FB0B202CF07D
:101B3000DBFB002205210C202CF0BCFB0C202CF040
:101B4000D3FB002205210D202CF0B4FB0D202CF03E
:101B5000CBFB002205210E202CF0ACFB0E202CF03C
:101B6000C3FB002205210F202CF0A4FB0F202CF03A
:101B7000BBFB0022052110202CF09CFB10202CF038
:101B8000B3FB0022052111202CF094FB11202CF036
:101B9000ABFB002205212F202CF08CFB2F202CF0FA
:101BA000A3FB0022052138202CF084FB38202CF0E8
:101BB0009BFB0022052139202CF07CFB39202CF0E6
:101BC00093FB002205213A202CF074FB3A202CF0E4
:101BD0008BFB00BF0837BD4680BD00BF00440258E4
:101BE00080B500AF2E4B2F4A1A602D4B00229A6011
:101BF0002B4B0022DA602A4B00221A74284B002259
:101C00005A74274B00229A74254B18225A61244B90
:101C100001229A61224B0222DA61214B02221A62CE
:101C20001F4B01225A621E4B01229A621C4B012259
:101C3000DA621B4B01221A63194B00225A63184BBC
:101C400001229A63164B0022DA63154B20221A6494
:101C5000134B04225A64124B00229A64104B042244
:101C6000DA640F4B00221A650D4B04225A650C4BA7
:101C700000229A650A4B0022DA65094B20221A6677
:101C8000074B00225A66064B04229A6604482FF03E
:101C90007DF90346002B01D000F074FB00BF80BD2E
:101CA000708B012400A0004080B500AF2F4B304A5C
:101CB0001A602E4B00229A602C4B0022DA602B4BCC
:101CC00000221A74294B00225A74284B00229A745D
:101CD000264B18225A61254B01229A61234B02227E
:101CE000DA61224B02221A62204B01225A621F4BF8
:101CF00001229A621D4B0122DA621C4B01221A63F7
:101D00001A4B40F206425A63184B01229A63174B52
:101D10000022DA63154B20221A64144B04225A6401
:101D2000124B00229A64114B0422DA640F4B0022FA
:101D30001A650E4B04225A650C4B00229A650B4B18
:101D40000022DA65094B20221A66084B00225A66E7
:101D5000064B04229A6605482FF018F90346002B1B
:101D600001D000F00FFB00BF80BD00BF108C01242C
:101D700000A4004080B500AF2F4B304A1A602E4BB4
:101D800000229A602C4B0022DA602B4B01221A743D
:101D9000294B00225A74284B00229A74264B182291
:101DA0005A61254B01229A61234B0222DA61224BB0
:101DB00002221A62204B01225A621F4B01229A62B0
:101DC0001D4B0122DA621C4B01221A631A4B40F6AA
:101DD00012025A63184B01229A63174B0022DA63EE
:101DE000154B20221A64144B04225A64124B002211
:101DF0009A64114B0422DA640F4B00221A650E4BD1
:101E000004225A650C4B00229A650B4B0022DA65BE
:101E1000094B20221A66084B00225A66064B042200
:101E20009A6605482FF0B2F80346002B01D000F067
:101E3000A9FA00BF80BD00BFB08C012400D40040CF
:101E400080B58EB000AF786007F1240300221A60DD
:101E50005A609A60DA601A617B681B68684A93422C
:101E60003FD1684B1B680133664A1360654B1B68A2
:101E7000012B0ED1644BD3F8EC30634A43F48073EA
:101E8000C2F8EC30604BD3F8EC3003F480733B6263
:101E90003B6A5D4BD3F8E0305B4A43F00803C2F87D
:101EA000E030594BD3F8E03003F00803FB61FB69E5
:101EB00003237B620223BB620023FB6200233B639C
:101EC00009237B6307F124031946504830F006FBD1
:101ED0000022052113202CF0EDF913202CF004FA38
:101EE00089E07B681B684A4A93423FD1454B1B6897
:101EF0000133444A1360434B1B68012B0ED1424B04
:101F0000D3F8EC30404A43F48073C2F8EC303E4BD7
:101F1000D3F8EC3003F48073BB61BB693A4BD3F860
:101F2000E030394A43F00203C2F8E030364BD3F8D0
:101F3000E03003F002037B617B6960237B62022354
:101F4000BB620023FB6200233B6309237B6307F131
:101F5000240319462F4830F0C1FA0022052114202D
:101F60002CF0A8F914202CF0BFF944E07B681B6822
:101F7000294A93423FD1234B1B680133214A136006
:101F8000204B1B68012B0ED11F4BD3F8EC301E4A9F
:101F900043F48073C2F8EC301B4BD3F8EC3003F4FD
:101FA00080733B613B69184BD3F8E030164A43F02D
:101FB0000803C2F8E030144BD3F8E03003F0080314
:101FC000FB60FB684FF440537B620223BB6200233B
:101FD000FB6200233B6305237B6307F1240319465F
:101FE0000A4830F07BFA002205219F202CF062F98C
:101FF0009F202CF079F900BF3837BD4680BD00BF67
:1020000000A00040508D012400440258000C0258EA
:1020100000A400400004025800D4004080B58CB0F9
:1020200000AF07F11C0300221A605A609A60DA6060
:102030001A616E4BD3F8E0306C4A43F01003C2F8DB
:10204000E0306A4BD3F8E03003F01003BB61BB69AA
:10205000664BD3F8E030654A43F00403C2F8E03041
:10206000624BD3F8E03003F004037B617B695F4B84
:10207000D3F8E0305D4A43F08003C2F8E0305B4BB8
:10208000D3F8E03003F080033B613B69574BD3F852
:10209000E030564A43F00103C2F8E030534BD3F826
:1020A000E03003F00103FB60FB68504BD3F8E030F5
:1020B0004E4A43F00203C2F8E0304C4BD3F8E03014
:1020C00003F00203BB60BB68484BD3F8E030474ADB
:1020D00043F00803C2F8E030444BD3F8E03003F09B
:1020E00008037B607B6800224FF4C041404830F019
:1020F000B5FB012248F209013D4830F0AFFB002258
:1021000005213C4830F0AAFB00224FF400713A4808
:1021100030F0A4FB4FF46043FB6101233B620023DA
:102120007B620023BB6207F11C031946304830F084
:10213000D5F90923FB6101233B6200237B62032362
:10214000BB6207F11C031946294830F0C7F9052383
:10215000FB6101233B6200237B620023BB6207F12A
:102160001C031946234830F0B9F94FF40073FB61A2
:1021700001233B6200237B620023BB6207F11C0347
:1021800019461D4830F0AAF94FF4A053FB614FF4F3
:1021900088133B6200237B6207F11C031946164833
:1021A00030F09CF94FF40043FB6100233B620023B5
:1021B0007B6207F11C0319460E4830F08FF90021AD
:1021C0004FF000602AF034FC00214FF080702AF0BC
:1021D0002FFC0022052128202CF06CF828202CF060
:1021E00083F800BF3037BD4680BD00BF00440258B1
:1021F00000080258000002580010025880B59CB038
:1022000000AF07F124034C22002118463EF002FFE4
:102210003B1D2022002118463EF0FCFE022031F03A
:1022200045FE00233B602C4B9B692B4A23F4404323
:102230009361294B9B6903F440433B603B6800BFBB
:10224000254B9B6903F40053B3F5005FF8D10923D4
:102250007B624FF48033BB620123BB630223BB6408
:102260000223FB640C233B6540F213137B650123BF
:10227000BB650223FB6502233B6604237B660023C8
:10228000BB660023FB6607F12403184634F03EFAD0
:102290000346002B01D000F075F83F237B60032339
:1022A000BB600023FB6008233B6140237B6140232C
:1022B000BB614FF48063FB6140233B623B1D032104
:1022C000184634F0FDFD0346002B01D000F05AF80B
:1022D00000BF7037BD4680BD0048025800000000B6
:1022E00080B5AEB000AF3B46B822002118463EF0A4
:1022F00091FE19A3D3E90023C7E900230223BB60A1
:102300002823FB6004233B6104237B610223BB6120
:10231000C023FB6100233B6200237B622023FB641C
:102320004FF48053FB654FF00053FB6601237B673E
:102330000823BB670023C7F8A0303B46184631F09E
:10234000FFFD0346002B01D000F01CF800BFB8379A
:10235000BD4680BDAFF3008003900802000000007E
:1023600080B582B000AF78607B681B68044A9342F6
:1023700001D12AF019FB00BF0837BD4680BD00BF60
:102380000008004080B400AF72B600BF00BFFDE798
:1023900080B500AF284B294A1A60274B4FF48002C2
:1023A0005A60254B00229A60234B0722DA60224BA9
:1023B0004FF000721A61204B4FF080725A611E4B31
:1023C0004FF080629A611C4B4FF04052DA611A4B19
:1023D00000221A62184B00225A62174B00229A629E
:1023E000154B0022DA62144B4FF080425A63124BB5
:1023F00000229A63104B0022DA630F4B00221A640A
:102400000D4B00225A640C4B00229A640A4B0022A6
:10241000DA64094B00221A65074B00225A65064B05
:1024200000229A65044835F019F90346002B01D0C3
:10243000FFF7A8FF00BF80BD648D01240038004075
:1024400080B500AF284B294A1A60274B4FF4800211
:102450005A60254B4FF400329A60234B0722DA6012
:10246000214B00221A61204B4FF080725A611E4BA3
:102470004FF080629A611C4B4FF08052DA611A4B28
:1024800000221A62184B00225A62174B00229A62ED
:10249000154B0022DA62144B4FF080425A63124B04
:1024A00000229A63104B0022DA630F4B00221A6459
:1024B0000D4B00225A640C4B00229A640A4B0022F6
:1024C000DA64094B00221A65074B00225A65064B55
:1024D00000229A65044835F0C1F80346002B01D06C
:1024E000FFF750FF00BF80BDEC8D012400140058A1
:1024F00080B5BCB000AF786007F1DC0300221A6041
:102500005A609A60DA601A6107F12003B82200214C
:1025100018463EF07FFD7B681B688C4A934240F072
:10252000BD808B4BD3F8E830894A43F48043C2F82E
:10253000E830874BD3F8E83003F48043FB61FB6954
:10254000834BD3F8E030824A43F00403C2F8E03012
:102550007F4BD3F8E03003F00403BB61BB697C4BD5
:10256000D3F8E0307A4A43F00203C2F8E030784B07
:10257000D3F8E03003F002037B617B690623C7F8E0
:10258000DC300223C7F8E0300023C7F8E430002332
:10259000C7F8E8300523C7F8EC3007F1DC0319462B
:1025A0006C482FF09BFF4FF40053C7F8DC30022338
:1025B000C7F8E0300023C7F8E4300023C7F8E8305C
:1025C0000523C7F8EC3007F1DC03194662482FF009
:1025D00085FF624B624A1A60604B27225A605F4B4C
:1025E00000229A605D4B0022DA605C4B4FF48062FF
:1025F0001A615A4B00225A61584B00229A61574B7C
:102600000022DA61554B4FF440321A62534B0022DC
:102610005A6252482BF076FE0346002B01D0FFF79A
:10262000B1FE7B684D4ADA674C4A7B6893634D4B39
:102630004D4A1A604B4B28225A604A4B40229A60FE
:10264000484B0022DA60474B4FF480621A61454BD9
:1026500000225A61434B00229A61424B0022DA6108
:10266000404B4FF400321A623E4B00225A623D4802
:102670002BF048FE0346002B01D0FFF783FE7B685A
:10268000384A9A67374A7B689363002205212420E1
:102690002BF010FE24202BF027FE53E07B681B68F4
:1026A000324A93424ED14FF480424FF00003C7E9C3
:1026B00008234FF0A043C7F8CC3007F12003184699
:1026C00031F03EFC0346002B01D0FFF75BFE204BB0
:1026D000D3F8F4301E4A43F02003C2F8F4301C4B08
:1026E000D3F8F43003F020033B613B69184BD3F877
:1026F000E030174A43F00103C2F8E030144BD3F83E
:10270000E03003F00103FB60FB68A023C7F8DC3076
:102710000223C7F8E0300023C7F8E4300023C7F8ED
:10272000E8300823C7F8EC3007F1DC0319461048FD
:102730002FF0D4FE0022052156202BF0BBFD5620A1
:102740002BF0D2FD00BFF037BD4680BD0038004001
:10275000004402580008025800040258748E0124F4
:1027600070000240EC8E0124280002400014005842
:102770000000025880B582B000AF0C4BD3F8F430A3
:102780000A4A43F00203C2F8F430084BD3F8F4309D
:1027900003F002037B607B6800220F216FF00100D1
:1027A0002BF088FD00BF0837BD4680BD00440258AD
:1027B00080B590B000AF78607B680F2B27D80022DF
:1027C00079681E202BF076FD1E202BF08DFD294A06
:1027D0007B681360284BD3F8E830274A43F00403A2
:1027E000C2F8E830244BD3F8E83003F00403FB6070
:1027F000FB6807F1100207F114031146184634F084
:10280000EBFEBB6ABB63BB6B002B06D101E001236F
:102810002BE034F0B5FEF86304E034F0B1FE03467B
:102820005B00FB63FB6B154AA2FB03239B0C013B84
:102830007B63134B134A1A60114B40F2E732DA60A4
:102840000F4A7B6B53600E4B00221A610C4B002227
:102850009A600B4836F0E4F80346002B04D1084890
:1028600036F040F9034600E0012318464037BD46E4
:1028700080BD00BF280200240044025883DE1B43B1
:10288000648F01240008004080B400AF00BFFDE762
:1028900080B400AF00BFFDE780B400AF00BFFDE72C
:1028A00080B400AF00BFFDE780B400AF00BFFDE71C
:1028B00080B400AF00BFBD465DF8047B70470000E8
:1028C00080B500AF02482DF043F800BF80BD00BFC7
:1028D000F88A012480B500AF02482DF039F800BF16
:1028E00080BD00BFEC8E012480B500AF02482DF002
:1028F0002FF800BF80BD00BFA092012480B500AFBB
:1029000002482DF025F800BF80BD00BF808A012459
:1029100080B500AF02482DF01BF800BF80BD00BF9E
:10292000748E012480B500AF02482DF011F800BF6D
:1029300080BD00BFF894012480B500AF02482DF09F
:1029400007F800BF80BD00BF7095012480B500AFBF
:1029500002482FF0CBF800BF80BD00BF708B012470
:1029600080B500AF02482FF0C1F800BF80BD00BFA6
:10297000108C012480B500AF024836F027FA00BF62
:1029800080BD00BF648F012480B500AF024835F0E0
:10299000B1FC00BF80BD00BF648D012480B500AFD5
:1029A000024837F0E5FB00BF80BD00BF78910124ED
:1029B00080B500AF4FF480602FF069FF4FF4805076
:1029C0002FF065FF00BF80BD80B500AF02482CF03E
:1029D000BFFF00BF80BD00BF1893012480B500AFCA
:1029E000024837F0C5FB00BF80BD00BF50900124F6
:1029F00080B500AF02482CF0ABFF00BF80BD00BF28
:102A00009093012480B500AF02482CF0A1FF00BFD5
:102A100080BD00BF0894012480B500AF02482CF0AF
:102A200097FF00BF80BD00BF8094012480B500AF38
:102A3000024830F065F900BF80BD00BFC49E01248C
:102A400080B500AF024830F05BF900BF80BD00BF29
:102A5000C49E012480B500AF024830F051F900BF98
:102A600080BD00BFC49E012480B500AF024837F08E
:102A70007FFB00BF80BD00BFE490012480B500AFA4
:102A8000024835F037FC00BF80BD00BFEC8D01244B
:102A900080B500AF024837F06BFB00BF80BD00BFC0
:102AA0000C92012480B500AF02482FF01FF800BF40
:102AB00080BD00BFB08C012480B400AF0123184654
:102AC000BD465DF8047B704780B582B000AF78608A
:102AD00039603EF01BFB034616221A604FF0FF33AD
:102AE00018460837BD4680BD80B582B000AF78601B
:102AF0004FF0FF317868FFF7E7FF00BFFDE7000008
:102B000080B586B000AF7860144A154BD31A7B614C
:102B10007B693B61134B1B68002B02D1114B124A9E
:102B20001A60104B1A687B6813443A699A4207D2BC
:102B30003EF0ECFA03460C221A604FF0FF3309E036
:102B4000084B1B68FB60074B1A687B681344054AF7
:102B50001360FB6818461837BD4680BD0000052489
:102B600000040000B48F012478CB012480B400AFAE
:102B7000324BD3F88830314A43F47003C2F88830BE
:102B80002F4B1B6803F00F03062B07D82C4B1B6839
:102B900023F00F032A4A43F007031360294B1B68F5
:102BA000284A43F001031360264B00221A61254B8B
:102BB0001A682449244B13400B60214B1B6803F017
:102BC0000803002B07D01E4B1B6823F00F031C4A81
:102BD00043F0070313601B4B00229A61194B00223C
:102BE000DA61184B00221A62164B184A9A62154B8A
:102BF000174ADA62134B174A1A63124B00225A63C0
:102C0000104B144A9A630F4B0022DA630D4B114AA2
:102C10001A640C4B00225A640A4B1B68094A23F4BD
:102C200080231360074B00221A660B4B43F2D2023B
:102C30001A6000BFBD465DF8047B704700ED00E000
:102C400000200052004402587FEDF6EA0002020222
:102C50000000FF01800201010040005280B58AB0EF
:102C600000AF07F11C0300221A605A609A603B46CD
:102C700000221A605A609A60DA601A615A619A6199
:102C8000214B224A1A60204B00225A601E4B002220
:102C90009A601D4B4FF6FF72DA601B4B00221A61DF
:102CA000194B80229A61184835F0A2FF0346002B89
:102CB00001D0FFF767FB0023FB6100237B6207F174
:102CC0001C031946104835F0F1FD0346002B01D0D6
:102CD000FFF758FB60233B6000237B600023BB6051
:102CE00000233B613B460C221946074836F076F933
:102CF0000346002B01D0FFF745FB034800F09EF888
:102D000000BF2837BD4680BDB88F012400040040B5
:102D100080B58AB000AF07F11C0300221A605A6028
:102D20009A603B4600221A605A609A60DA601A6123
:102D30005A619A61224B234A1A60214B17225A602A
:102D40001F4B00229A601E4B40F2CF72DA601C4B80
:102D500000221A611A4B00229A61194835F048FF87
:102D60000346002B01D0FFF70DFB0023FB6100237E
:102D70007B6207F11C031946114835F097FD0346A5
:102D8000002B01D0FFF7FEFA60233B604FF47A730B
:102D90007B600023BB6000233B613B460422194655
:102DA000074836F01BF90346002B01D0FFF7EAFA7B
:102DB000034800F043F800BF2837BD4680BD00BF80
:102DC000049001240018004080B485B000AF786002
:102DD0007B681B68164A93420FD1164BD3F8E83034
:102DE000144A43F00203C2F8E830124BD3F8E8303B
:102DF00003F00203FB60FB6813E07B681B680E4A6C
:102E000093420ED10B4BD3F8E8300A4A43F040030B
:102E1000C2F8E830074BD3F8E83003F04003BB605A
:102E2000BB6800BF1437BD465DF8047B704700BF28
:102E300000040040004402580018004080B58AB0E9
:102E400000AF786007F1140300221A605A609A609C
:102E5000DA601A617B681B68254A93421FD1254BB3
:102E6000D3F8E030234A43F00203C2F8E030214BAC
:102E7000D3F8E03003F002033B613B6902237B613E
:102E80000223BB610023FB6100233B6202237B62C0
:102E900007F11403194618482FF020FB24E07B6843
:102EA0001B68164A93421FD1124BD3F8E030114AE7
:102EB00043F00203C2F8E0300E4BD3F8E03003F0E9
:102EC0000203FB60FB684FF400437B610223BB619C
:102ED0000023FB6100233B6202237B6207F11403A2
:102EE000194605482FF0FAFA00BF2837BD4680BDC5
:102EF000000400400044025800040258001800403A
:102F000080B500AF234B244A1A60224B234A5A60F3
:102F1000204B4FF480529A601E4B0022DA601D4B0A
:102F20004FF480621A611B4B04225A61194B002234
:102F30009A61184B0022DA61164B00221A62154B77
:102F400000225A62134B00229A62124836F0A4FE05
:102F50000346002B01D0FFF715FA00210D4836F08B
:102F60007DFD0346002B01D0FFF70CFA0021094834
:102F700036F0B2FD0346002B01D0FFF703FA0548F7
:102F800036F033FD0346002B01D0FFF7FBF900BFFD
:102F900080BD00BF5090012400500040A086010079
:102FA00080B500AF224B234A1A60214B4FF46122B7
:102FB0005A601F4B00229A601D4B0022DA601C4BA6
:102FC00000221A611A4B0C225A61194B00229A6195
:102FD000174B0022DA61164B00221A62144B0022B2
:102FE0005A62134B00229A62114836F055FE03468E
:102FF000002B01D0FFF7C6F900210D4836F02EFD59
:103000000346002B01D0FFF7BDF90021084836F038
:1030100063FD0346002B01D0FFF7B4F9044836F0F6
:10302000E4FC0346002B01D0FFF7ACF900BF80BDE4
:10303000E49001240078004080B500AF224B234A81
:103040001A60214B4FF461225A601F4B00229A6094
:103050001D4B0022DA601C4B00221A611A4B0C2215
:103060005A61194B00229A61174B0022DA61164B04
:1030700000221A62144B00225A62134B00229A62F9
:10308000114836F009FE0346002B01D0FFF77AF90C
:1030900000210D4836F0E2FC0346002B01D0FFF77B
:1030A00071F90021084836F017FD0346002B01D0C6
:1030B000FFF768F9044836F098FC0346002B01D06E
:1030C000FFF760F900BF80BD789101240010014036
:1030D00080B500AF224B234A1A60214B4FF4E132F6
:1030E0005A601F4B00229A601D4B0022DA601C4B75
:1030F00000221A611A4B0C225A61194B00229A6164
:10310000174B0022DA61164B00221A62144B002280
:103110005A62134B00229A62114836F0BDFD0346F5
:10312000002B01D0FFF72EF900210D4836F096FC58
:103130000346002B01D0FFF725F90021084836F09F
:10314000CBFC0346002B01D0FFF71CF9044836F0F6
:103150004CFC0346002B01D0FFF714F900BF80BDE3
:103160000C920124001C014080B596B000AF78603D
:1031700007F1440300221A605A609A60DA601A610B
:103180007B681B68904A934240F085808F4BD3F850
:10319000E8308E4A43F48013C2F8E8308B4BD3F802
:1031A000E83003F480133B643B6C884BD3F8E03089
:1031B000864A43F00403C2F8E030844BD3F8E03091
:1031C00003F00403FB63FB6B804BD3F8E0307F4AD2
:1031D00043F00803C2F8E0307C4BD3F8E03003F052
:1031E0000803BB63BB6B4FF480537B640223BB6457
:1031F0000023FB6400233B6508237B6507F1440340
:10320000194673482FF06AF904237B640223BB64D8
:103210000023FB6400233B6508237B6507F144031F
:1032200019466C482FF05AF96B4B6C4A1A606A4B7E
:1032300041225A60684B00229A60674B0022DA6094
:10324000654B4FF480621A61634B00225A61624BF6
:1032500000229A61604B0022DA615F4B00221A6201
:103260005D4B00225A625C482BF04CF80346002B61
:1032700001D0FFF787F87B68574AC3F88020564A89
:103280007B6893630022052135202BF013F835204D
:103290002BF02AF88FE27B681B68514A934240F07A
:1032A000AB804A4BD3F8E830484A43F08043C2F839
:1032B000E830464BD3F8E83003F080437B637B6B08
:1032C000424BD3F8E030414A43F01003C2F8E030FB
:1032D0003E4BD3F8E03003F010033B633B6B4FF4FD
:1032E000C0737B640223BB640023FB6400233B6543
:1032F00007237B6507F1440319463A482FF0EEF89F
:10330000394B3A4A1A60384B4F225A60364B0022EA
:103310009A60354B0022DA60334B4FF480621A61B9
:10332000314B00225A61304B00229A612E4B002211
:10333000DA612D4B00221A622B4B00225A622A4876
:103340002AF0E0FF0346002B01D0FFF71BF87B6853
:10335000254AC3F88020244A7B689363244B254A7E
:103360001A60234B50225A60214B40229A60204B16
:103370000022DA601E4B4FF480621A611C4B00225F
:103380005A611B4B00229A61194B0022DA61184BDB
:1033900000221A62164B00225A6215482AF0B2FF28
:1033A0000346002B01D0FEF7EDFF7B68104ADA6779
:1033B0000F4A7B6893630022052152202AF07AFF8E
:1033C00052202AF091FFF6E10050004000440258DC
:1033D00000080258000C0258A0920124400002404C
:1033E000007800400010025818930124B8000240F1
:1033F00090930124100402407B681B688F4A93421B
:1034000040F093808E4BD3F8F0308D4A43F0100398
:10341000C2F8F0308A4BD3F8F03003F01003FB62AF
:10342000FB6A874BD3F8E030854A43F00103C2F8CA
:10343000E030834BD3F8E03003F00103BB62BB6A9A
:103440004FF4C0637B640223BB640023FB6400234E
:103450003B6507237B6507F14403194679482FF044
:103460003DF8794B794A1A60774B29225A60764B9E
:1034700000229A60744B0022DA60734B4FF4806232
:103480001A61714B00225A616F4B00229A616E4B98
:103490000022DA616C4B00221A626B4B00225A62E6
:1034A00069482AF02FFF0346002B01D0FEF76AFF80
:1034B0007B68654AC3F88020634A7B689363644BEA
:1034C000644A1A60624B2A225A60614B40229A6019
:1034D0005F4B0022DA605E4B4FF480621A615C4BF6
:1034E00000225A615A4B00229A61594B0022DA613C
:1034F000574B00221A62564B00225A6254482AF057
:1035000001FF0346002B01D0FEF73CFF7B68504AC9
:10351000DA674F4A7B6893630022052125202AF051
:10352000C9FE25202AF0E0FE45E17B681B684A4A77
:1035300093422ED1424BD3F8E830414A43F4003352
:10354000C2F8E8303E4BD3F8E83003F400337B6236
:103550007B6A3B4BD3F8E030394A43F00803C2F8AA
:10356000E030374BD3F8E03003F008033B623B6AAE
:1035700070237B640223BB640023FB6400233B6550
:1035800007237B6507F14403194634482EF0A6FF54
:1035900011E17B681B68324A934265D1284BD3F80E
:1035A000E830274A43F48023C2F8E830244BD3F8AC
:1035B000E83003F48023FB61FB69214BD3F8E03052
:1035C0001F4A43F00203C2F8E0301D4BD3F8E0304D
:1035D00003F00203BB61BB69194BD3F8E030184A12
:1035E00043F00803C2F8E030154BD3F8E03003F0A5
:1035F00008037B617B694FF480437B640223BB64D7
:103600000023FB6400233B6507237B6507F144032C
:10361000194614482EF062FF4FF440737B64022376
:10362000BB640023FB6400233B6507237B6507F134
:103630004403194609482EF051FFBCE00010014038
:103640000044025800000258089401242804024053
:10365000809401244004024000440040000C0258C1
:1036600000480040000402587B681B68544A93429B
:1036700040F0A180534BD3F8F030524A43F080031E
:10368000C2F8F0304F4BD3F8F03003F080033B61C9
:103690003B694C4BD3F8E0304A4A43F01003C2F880
:1036A000E030484BD3F8E03003F01003FB60FB68D8
:1036B00004237B640223BB640023FB6400233B657B
:1036C00004237B6507F1440319463F482EF006FFAB
:1036D00008237B640223BB640023FB6400233B6557
:1036E0000B237B6507F14403194637482EF0F6FE9D
:1036F000364B374A1A60354B77225A60334B40229B
:103700009A60324B0022DA60304B4FF480621A61CB
:103710002E4B00225A612D4B00229A612B4B002226
:10372000DA612A4B00221A62284B00225A6227488B
:103730002AF0E8FD0346002B01D0FEF723FE7B684C
:10374000224ADA67214A7B689363224B224A1A6035
:10375000204B76225A601F4B00229A601D4B00229C
:10376000DA601C4B4FF480621A611A4B00225A61D6
:10377000184B00229A61174B0022DA61154B002288
:103780001A62144B00225A6212482AF0BBFD03460B
:10379000002B01D0FEF7F6FD7B680E4AC3F88020AF
:1037A0000C4A7B689363002205219C202AF082FD4D
:1037B0009C202AF099FD00BF5837BD4680BD00BF50
:1037C000001C01400044025800100258F8940124E3
:1037D0008800024070950124A0000240DFF834D038
:1037E000FFF7C4F90C480D490D4A002302E0D458F4
:1037F000C4500433C4188C42F9D30A4A0A4C00233B
:1038000001E013600432A242FBD33DF085FCFDF7DA
:1038100059FF704700000524000000248C0200249A
:10382000906604089002002478CB0124FEE7000093
:1038300080B500AF01221349134801F01FFA034677
:10384000002B01D0FEF79EFD10490F4801F046FA0B
:103850000346002B01D0FEF795FD0D490A4801F003
:103860003DF90346002B01D0FEF78CFD064801F020
:103870006BFA0346002B01D0FEF784FD30F050FBBD
:1038800000BF80BD24000024E895012484000024AA
:103890001000002480B500AF00220549054801F062
:1038A00037F90549034801F055F90023184680BD52
:1038B000C49A0124E8950124C498012480B400AF7F
:1038C00000231846BD465DF8047B704780B483B082
:1038D00000AF03463960FB711346BB80FB79232B95
:1038E0004AD801A252F823F0793900087939000842
:1038F00079390008793900087939000879390008E0
:1039000079390008793900087939000879390008CF
:1039100079390008793900087939000879390008BF
:1039200079390008793900087939000879390008AF
:10393000793900087939000879390008793900089F
:10394000793900087939000879390008793900088F
:10395000793900087939000879390008793900087F
:10396000793900087939000879390008793900086F
:10397000793900087939000800BF002318460C3750
:10398000BD465DF8047B704780B582B000AF7860BB
:1039900039603B681B681946786812F009FE79683F
:1039A000054801F0D7F8044801F032F90023184621
:1039B0000837BD4680BD00BFE895012480B584B0BE
:1039C00000AF78600B467B800023FB730D4BD3F870
:1039D000BC32BB60BB68D3F81432002B01D001238A
:1039E0000BE07B881A467968064801F091F8054893
:1039F00001F0CEF80346FB73FB7B18461037BD463B
:103A000080BD00BFE895012480B487B000AFF860A6
:103A1000B9601346FB710023FB7597F91730184600
:103A20001C37BD465DF8047B7047000080B483B04E
:103A300000AF03463960FB713B6812221A80034BCA
:103A400018460C37BD465DF8047B704744000024DF
:103A500080B483B000AF03463960FB713B68042239
:103A60001A80034B18460C37BD465DF8047B70473F
:103A70005800002480B582B000AF03463960FB7166
:103A8000FB79002B05D13A680749084802F052FB40
:103A900004E03A680449054802F04CFB024B184622
:103AA0000837BD4680BD00BFC49C012444120408F1
:103AB00080B582B000AF03463960FB713A680449B3
:103AC000044802F037FB024B18460837BD4680BD5C
:103AD000C49C01245C12040880B582B000AF034688
:103AE0003960FB713B681A221A8000F043F8024BE0
:103AF00018460837BD4680BD5C00002480B582B002
:103B000000AF03463960FB71FB79002B05D13A68A1
:103B10000749084802F00EFB04E03A6804490548EA
:103B200002F008FB024B18460837BD4680BD00BFB7
:103B3000C49C01247012040880B582B000AF034613
:103B40003960FB71FB79002B05D13A6807490848B9
:103B500002F0F0FA04E03A680449054802F0EAFA93
:103B6000024B18460837BD4680BD00BFC49C0124E7
:103B70007C12040880B584B000AF0F4B1B68FB605B
:103B80000E4B1B68BB600E4B1B687B60FA687B6842
:103B90001344FB60FB68002B09D008220949F86830
:103BA00000F014F804220849B86800F00FF800BFCC
:103BB0001037BD4680BD00BF00E8F11F04E8F11FCB
:103BC00008E8F11F5E0000246E00002480B487B076
:103BD00000AFF860B9601346FB710023FB7500234A
:103BE000FB7527E0FB681B0F092B0BD8FB681B0F2D
:103BF000DAB2FB7D5B001946BB680B443032D2B2AF
:103C00001A700AE0FB681B0FDAB2FB7D5B001946F5
:103C1000BB680B443732D2B21A70FB681B01FB60E1
:103C2000FB7D5B000133BA68134400221A70FB7DF0
:103C30000133FB75FA7DFB799A42D3D300BF00BFF5
:103C40001C37BD465DF8047B7047000080B5B2B0FC
:103C500000AF786007F11003B822002118463DF04C
:103C6000D9F97B681B682A4A93424DD14FF48022D0
:103C70004FF00003C7E904230223BB631023FB6357
:103C800002233B6404237B640223BB644FF4406340
:103C9000FB6400233B6500237B654FF40013C7F8EA
:103CA000943007F11003184630F04AF90346002B10
:103CB00001D0FEF767FB30F033F9164BD3F8D8305C
:103CC000144A43F00073C2F8D830124BD3F8D830FE
:103CD00003F00073FB60FB68002200214A202AF0F9
:103CE000E9FA4A202AF000FB002200214B202AF0AA
:103CF000E1FA4B202AF0F8FA002205214D202AF0A3
:103D0000D9FA4D202AF0F0FA00BFC837BD4680BD71
:103D1000000004400044025880B582B000AF7860D3
:103D20007B68D3F8E0247B6803F29C431946104675
:103D300001F072F800BF0837BD4680BD80B582B083
:103D400000AF78600B46FB707B68D3F8E004FA782C
:103D500079681346DB0013449B000B4403F518738A
:103D60001A68FB78194601F0ACF800BF0837BD4669
:103D700080BD80B582B000AF78600B46FB707B6879
:103D8000D3F8E004FA7879681346DB0013449B000B
:103D90000B4420331A68FB78194601F045F900BF3F
:103DA0000837BD4680BD80B582B000AF78607B68C3
:103DB000D3F8E034184601F07FFA00BF0837BD465B
:103DC00080BD80B584B000AF78600123FB737B6851
:103DD000DB79002B02D10023FB7308E07B68DB79E1
:103DE000022B02D10123FB7301E0FEF7CBFA7B68C3
:103DF000D3F8E034FA7B1146184601F019FA7B68D3
:103E0000D3F8E034184601F0C1F900BF1037BD46C1
:103E100080BD000080B582B000AF78607B68D3F8C9
:103E2000E034184601F014FA7B681B6803F5606300
:103E30001B687A68126802F5606243F00103136040
:103E40007B68DB7A002B05D0044B1B69034A43F0E7
:103E50000603136100BF0837BD4680BD00ED00E0DA
:103E600080B582B000AF78607B68D3F8E034184644
:103E700001F00AFA00BF0837BD4680BD80B582B0A8
:103E800000AF78600B46FB707B68D3F8E034FA78BB
:103E90001146184601F062FA00BF0837BD4680BDE2
:103EA00080B582B000AF78600B46FB707B68D3F8BA
:103EB000E034FA781146184601F01EFA00BF0837C0
:103EC000BD4680BD80B582B000AF78607B68D3F816
:103ED000E034184601F074FA00BF0837BD4680BDD3
:103EE00080B582B000AF78607B68D3F8E0341846C4
:103EF00001F071FA00BF0837BD4680BD80B582B0C1
:103F000000AF78607B681B78012B40D1224A7B6828
:103F1000C2F8E0347B68204AC3F8C8221E4B1F4A0F
:103F20001A601D4B09221A711B4B0222DA711A4BBF
:103F300000229A71184B02225A72174B00229A7271
:103F4000154B0022DA72144B00221A73124B002216
:103F50009A73114B0022DA730F4B00221A740E4829
:103F60002EF052FD0346002B01D0FEF70BFA4FF462
:103F7000007109482EF007FD8022002106482EF02E
:103F8000BBFC4FF4BA72012103482EF0B5FC0023AC
:103F900018460837BD4680BDC49E01240000044079
:103FA00080B584B000AF78600023FB730023BB733F
:103FB0007B68D3F8C83218462EF032FE0346FB73F6
:103FC000FB7B184600F05EF90346BB73BB7B1846CB
:103FD0001037BD4680BD80B584B000AF7860002347
:103FE000FB730023BB737B68D3F8C83218462EF0EE
:103FF0004CFE0346FB73FB7B184600F043F9034677
:10400000BB73BB7B18461037BD4680BD80B584B0FE
:1040100000AF7860084611461A460346FB700B460F
:10402000BB7013463B800023FB730023BB737B688C
:10403000D3F8C802BB783A88F9782FF053FB0346CF
:10404000FB73FB7B184600F01DF90346BB73BB7B7B
:1040500018461037BD4680BD80B584B000AF78608B
:104060000B46FB700023FB730023BB737B68D3F804
:10407000C832FA78114618462FF09CFB0346FB73B2
:10408000FB7B184600F0FEF80346BB73BB7B18466B
:104090001037BD4680BD80B584B000AF78600B4658
:1040A000FB700023FB730023BB737B68D3F8C8321B
:1040B000FA78114618462FF054FC0346FB73FB7B3D
:1040C000184600F0DFF80346BB73BB7B1846103779
:1040D000BD4680BD80B584B000AF78600B46FB70F4
:1040E0000023FB730023BB737B68D3F8C832FA78D4
:1040F000114618462FF098FC0346FB73FB7B1846CD
:1041000000F0C0F80346BB73BB7B18461037BD46B2
:1041100080BD80B485B000AF78600B46FB707B68D3
:10412000D3F8C832FB6097F90330002B0BDAFB7829
:1041300003F07F02F9681346DB0013449B000B4435
:1041400016331B780BE0FB7803F07F02F968134607
:10415000DB0013449B000B4403F256231B781846E4
:104160001437BD465DF8047B704780B584B000AF5E
:1041700078600B46FB700023FB730023BB737B68E6
:10418000D3F8C832FA78114618462FF087FA03465A
:10419000FB73FB7B184600F075F80346BB73BB7BD3
:1041A00018461037BD4680BD80B586B000AFF860B8
:1041B0007A603B600B46FB720023FB750023BB75E6
:1041C000FB68D3F8C802F97A3B687A682FF08FFB56
:1041D0000346FB75FB7D184600F054F80346BB759B
:1041E000BB7D18461837BD4680BD80B586B000AF90
:1041F000F8607A603B600B46FB720023FB7500237E
:10420000BB75FB68D3F8C802F97A3B687A682FF06F
:104210001BFB0346FB75FB7D184600F033F8034695
:10422000BB75BB7D18461837BD4680BD80B582B0D2
:1042300000AF78600B46FB707B68D3F8C832FA7821
:10424000114618462FF03BFB034618460837BD467B
:1042500080BD000080B483B000AF7860034B184687
:104260000C37BD465DF8047B704700BFA8A301244E
:1042700080B483B000AF786000BF0C37BD465DF8F6
:10428000047B704780B485B000AF0346FB71002308
:10429000FB73FB79032B17D801A252F823F000BF60
:1042A000B1420008B7420008BD420008C3420008FE
:1042B0000023FB730BE00323FB7308E00123FB7374
:1042C00005E00323FB7302E00323FB7300BFFB7BCA
:1042D00018461437BD465DF8047B704780B584B03E
:1042E00000AF78600B46FB704FF40770FFF7B2FF2A
:1042F000F860FB68002B09D17B68D3F8D4227B6877
:10430000B032002143F822100223D4E04FF40772A8
:104310000021F8683CF07EFE7B68D3F8D4227B68ED
:10432000B032F96843F822107B68D3F8D4227B6856
:10433000B03253F822207B68C3F8BC227B681B7C18
:10434000002B38D15E4B19784FF400730222786845
:10435000FFF75CFE5A4B1B7803F00F027968134697
:104360009B0013449B000B44243301221A80554BBD
:1043700019784FF4007302227868FFF747FE514B1B
:104380001B7803F00F02796813469B0013449B00CF
:104390000B4403F5B27301221A804B4B1B7803F0D8
:1043A0000F02796813469B0013449B000B4426338D
:1043B00010221A8035E0424B197840230222786897
:1043C000FFF724FE3E4B1B7803F00F02796813467B
:1043D0009B0013449B000B44243301221A80394B69
:1043E0001978402302227868FFF710FE354B1B78BE
:1043F00003F00F02796813469B0013449B000B44A3
:1044000003F5B27301221A802F4B1B7803F00F02C1
:10441000796813469B0013449B000B4426331022FB
:104420001A80294B1978082303227868FFF7EEFDDC
:10443000254B1B7803F00F02796813469B00134449
:104440009B000B44243301221A80FB680022C3F82E
:1044500004227B68D3F8D4327A68B0339B001344CB
:104460005B681B689847FB680022C3F81422FB684E
:104470000022C3F81822FB68D3F80432002B01D1C4
:10448000022318E07B681B7C002B0AD10D4B1978A6
:10449000FB68D3F804224FF400737868FFF7A5FE99
:1044A00008E0084B1978FB68D3F8042240237868A9
:1044B000FFF79BFE002318461037BD4680BD00BFA6
:1044C000FF000024000100240101002480B582B017
:1044D00000AF78600B46FB703A4B1B781946786842
:1044E000FFF7BAFD374B1B7803F00F0279681346CC
:1044F0009B0013449B000B44243300221A80324B50
:104500001B7819467868FFF7A7FD2F4B1B7803F03F
:104510000F02796813469B0013449B000B4403F57C
:10452000B27300221A80294B1B7819467868FFF76E
:1045300093FD264B1B7803F00F02796813469B000E
:1045400013449B000B44243300221A801F4B1B781A
:1045500003F00F02796813469B0013449B000B4441
:10456000263300221A807B68D3F8D4227B68B032CD
:1045700053F82230002B1FD07B68D3F8D4327A68EE
:10458000B0339B0013445B685B6898477B68D3F843
:10459000D4227B68B03253F822301846FFF768FE09
:1045A0007B68D3F8D4227B68B032002143F8221014
:1045B0007B680022C3F8BC22002318460837BD469A
:1045C00080BD00BFFF000024000100240101002481
:1045D00080B586B000AF786039607B68D3F8D422AC
:1045E0007B68B03253F822303B6100237B73002399
:1045F0007B810023FB753B69002B01D10323BFE0C6
:104600003B681B7803F06003002B50D0202B40F058
:10461000AF803B68DB88002B3AD03B681B785BB2ED
:10462000002B1BDA7B68D3F8D4327A68B0339B0056
:1046300013445B689B683A68507839693A68D28855
:1046400098473B68DB88072B28BF0723FB813B6922
:10465000FA891946786801F0D9FD90E03B685A78EC
:104660003B6983F800223B68DB883F2B03D83B681B
:10467000DB88DAB200E040223B6983F80122396925
:104680003B6993F801321A46786801F0EBFD76E059
:104690007B68D3F8D4327A68B0339B0013445B68EC
:1046A0009B683A68507800223968984767E03B6811
:1046B0005B780B2B51D801A252F823F0ED4600088D
:1046C000694700085B4700085B4700085B47000834
:1046D0005B4700085B4700085B4700085B47000832
:1046E0005B47000817470008414700087B6893F8BC
:1046F0009C32DBB2032B07D107F10A0302221946D1
:10470000786801F083FD32E03968786801F001FDD6
:104710000323FB752BE07B6893F89C32DBB2032B01
:1047200007D107F10D0301221946786801F06EFDEB
:104730001DE03968786801F0ECFC0323FB7516E096
:104740007B6893F89C32DBB2032B0FD03968786812
:1047500001F0DFFC0323FB7508E03968786801F09D
:10476000D8FC0323FB7502E000BF08E000BF06E0B1
:104770003968786801F0CDFC0323FB7500BFFB7D31
:1047800018461837BD4680BD80B584B000AF78604C
:104790000B46FB707B68D3F8C832FB607B68D3F8AC
:1047A000D4227B68B03253F82230002B01D103238E
:1047B00065E07B68D3F8D4227B68B03253F82230AE
:1047C000BB60FB7803F00F02796813469B0013442B
:1047D0009B000B4418331B68002B2FD0FB7803F091
:1047E0000F02796813469B0013449B000B44183357
:1047F0001A68FB7803F00F01F8680B46DB000B44E6
:104800009B0003441C331B68B2FBF3F101FB03F371
:10481000D31A002B12D1FB7803F00F0279681346EC
:104820009B0013449B000B44183300221A60F97854
:10483000002300227868FFF7B7FC1FE0BB68002266
:10484000C3F814227B68D3F8D4327A68B0339B0063
:1048500013445B681B69002B10D07B68D3F8D432FB
:104860007A68B0339B0013445B681B69BA68D2F85E
:104870000802BA6802F50471FA78984700231846CE
:104880001037BD4680BD80B584B000AF78600B4660
:10489000FB707B68D3F8D4227B68B03253F82230A7
:1048A000FB607B68D3F8D4227B68B03253F82230A7
:1048B000002B01D103231AE0FB7819467868FFF733
:1048C000B5FC0246FB68C3F80C227B68D3F8D432EF
:1048D0007A68B0339B0013445B68DB68FA68D2F8EF
:1048E0000402FA6802F5037211469847002318463D
:1048F0001037BD4680BD80B584B000AF78607B685E
:10490000D3F8D4227B68B03253F82230FB60FB68C6
:10491000002B01D1032324E07B68D3F8D4327A68DA
:10492000B0339B0013445B68002B19D0FB6893F8ED
:104930000032FF2B14D07B68D3F8D4327A68B033BE
:104940009B0013445B689B68FA6892F80002F96860
:10495000FA6892F801229847FB68FF2283F8002248
:10496000002318461037BD4680BD000080B586B0D4
:1049700000AF78608221184800F06AFD786101215B
:10498000154800F065FD38618121134800F060FD95
:10499000F8607B69002B02D07B6910229A713B6919
:1049A000002B06D03B69002242F040021A7100221F
:1049B0005A71FB68002B06D0FB68002242F04002CF
:1049C0001A7100225A717B6843221A80024B1846E2
:1049D0001837BD4680BD00BFBC00002480B586B03E
:1049E00000AF78608221184800F032FD7861012123
:1049F000154800F02DFD38618121134800F028FD95
:104A0000F8607B69002B02D07B6910229A713B69A8
:104A1000002B06D03B6900221A71002242F00202EC
:104A20005A71FB68002B06D0FB6800221A71002225
:104A300042F002025A717B6843221A80024B1846E8
:104A40001837BD4680BD00BFBC00002480B586B0CD
:104A500000AF78608221184800F0FAFC78610121EB
:104A6000154800F0F5FC38618121134800F0F0FC96
:104A7000F8607B69002B02D07B6910229A713B6938
:104A8000002B06D03B69002242F040021A7100223E
:104A90005A71FB68002B06D0FB68002242F04002EE
:104AA0001A7100225A717B6843221A80024B184601
:104AB0001837BD4680BD00BFBC00002480B483B061
:104AC00000AF78607B680A221A80034B18460C37C7
:104AD000BD465DF8047B70477800002480B483B045
:104AE00000AF786039603B68002B01D1032309E0F7
:104AF0007B68D3F8D4327A68B0339B0013443A68A9
:104B00005A60002318460C37BD465DF8047B704799
:104B100080B487B000AFF860B9607A60FB68D3F802
:104B2000D422FB68B03253F822307B617B69002BC2
:104B300001D1032308E07B69BA68C3F808227B69C6
:104B40007A68C3F81022002318461C37BD465DF86A
:104B5000047B704780B485B000AF786039607B68B3
:104B6000D3F8D4227B68B03253F82230FB60FB6864
:104B7000002B01D1032304E0FB683A68C3F8042248
:104B8000002318461437BD465DF8047B70470000CB
:104B900080B584B000AF78607B68D3F8D4227B689E
:104BA000B03253F82230BB600123FB73BB68002B8B
:104BB00001D1032325E0BB68D3F81432002B1FD1A9
:104BC000BB680122C3F81422104B1B7803F00F02BC
:104BD000BB68D3F81012786813469B0013449B00FF
:104BE000034418331960094B1978BB68D3F80822BD
:104BF000BB68D3F810327868FFF7D6FA0023FB734E
:104C0000FB7B18461037BD4680BD00BFFF00002467
:104C100080B584B000AF78607B68D3F8D4227B681D
:104C2000B03253F82230FB607B68D3F8D4227B6823
:104C3000B03253F82230002B01D1032318E07B68F7
:104C40001B7C002B0AD10C4B1978FB68D3F804228B
:104C50004FF400737868FFF7C8FA08E0064B19783C
:104C6000FB68D3F8042240237868FFF7BEFA0023DC
:104C700018461037BD4680BD0001002480B586B0BF
:104C800000AFF860B9601346FB71FB68002B01D1DF
:104C900003231FE0FB680022C3F8B822FB68002250
:104CA000C3F8C422FB680022C3F8D022BB68002BE3
:104CB00003D0FB68BA68C3F8B422FB68012283F80A
:104CC0009C22FB68FA791A70F868FFF717F9034617
:104CD000FB75FB7D18461837BD4680BD80B584B096
:104CE00000AF786039600023FB813B68002B01D165
:104CF000032325E07B683A68C3F8B8227B68D3F8C1
:104D0000D4227B68AE3253F82230DB6A002B0FD0FE
:104D10007B68D3F8D4227B68AE3253F82230DB6A4A
:104D200007F10E021046984702467B68C3F8D0226E
:104D30007B68D3F8D8325A1C7B68C3F8D82200238A
:104D400018461037BD4680BD80B582B000AF786090
:104D50007868FFF725F9034618460837BD4680BD39
:104D600080B582B000AF78607868FFF734F97B686F
:104D7000D3F8B832002B09D07B68D3F8B8325B681F
:104D80007A685268D2B2114678689847002318466C
:104D90000837BD4680BD80B483B000AF7860002383
:104DA00018460C37BD465DF8047B704780B584B06B
:104DB00000AF78600B46FB700023FB737B68D3F871
:104DC000B832002B09D07B68D3F8B8321B68FA7868
:104DD0001146786898470346FB73FB7B18461037EB
:104DE000BD4680BD80B584B000AF78600B46FB70D7
:104DF0000023FB737B68D3F8B8325B68FA781146FE
:104E0000786898470346002B01D00323FB73FB7B94
:104E100018461037BD4680BD80B584B000AF7860BD
:104E200039607B6803F2AA233968184601F037F924
:104E30007B680122C3F894227B68B3F8B0321A462B
:104E40007B68C3F898227B6893F8AA3203F01F03AB
:104E5000022B1AD0022B22D8002B02D0012B0AD011
:104E60001DE07B6803F2AA231946786800F064FB12
:104E70000346FB7320E07B6803F2AA231946786897
:104E800000F0CCFB0346FB7316E07B6803F2AA2319
:104E90001946786800F02EFC0346FB730CE07B6833
:104EA00093F8AA3223F07F03DBB219467868FFF744
:104EB000F2F80346FB7300BFFB7B18461037BD4674
:104EC00080BD80B586B000AFF8600B467A60FB729B
:104ED0000023FB75FB7A002B6ED1FB6803F5AA73E8
:104EE0003B61FB68D3F89432032B40F098803B6918
:104EF0009A683B69DB689A4213D93B699A683B69B7
:104F0000DB68D21A3B699A603B69DA683B699B6847
:104F1000934228BF13461A467968F86801F0BFF932
:104F20007DE0FB6893F8AA3203F01F03022B14D034
:104F3000022B1DD8002B02D0012B03D018E0002338
:104F4000BB7518E0FB68B3F8AE32DBB21946F868FF
:104F500000F064FA0346BB750DE0FB68B3F8AE32AF
:104F6000DBB21946F86800F066FA0346BB7502E04A
:104F70000023BB7500BFBB7D002B19D1FB6893F8E4
:104F80009C32DBB2032B13D1BA7DFB68AE3253F8EF
:104F900022301B69002B0BD0BA7DFB68C3F8D422EA
:104FA000BA7DFB68AE3253F822301B69F868984727
:104FB000F86801F085F932E0FB7A03F07F03DBB299
:104FC0001946F86800F037FA0346BB75BB7DFF2B26
:104FD00025D0BB7D002B22D1FB6893F89C32DBB23D
:104FE000032B17D1BA7DFB68AE3253F822309B6990
:104FF000002B0FD0BA7DFB68C3F8D422BA7DFB68C2
:10500000AE3253F822309B69FA7A1146F868984715
:105010000346FB75FB7D002B01D0FB7D00E00023E8
:1050200018461837BD4680BD80B586B000AFF86021
:105030000B467A60FB72FB7A002B6FD1FB6814334E
:105040003B61FB68D3F89432022B5AD13B699A68D2
:105050003B69DB689A4214D93B699A683B69DB6813
:10506000D21A3B699A603B699B681A467968F8686E
:1050700001F0E7F8002300220021F868FFF7B5F8F7
:105080003FE03B69DA683B699B689A421CD13B6907
:105090005A683B69DB689A4216D33B695A68FB68D9
:1050A000D3F898329A420FD200220021F86801F01A
:1050B000C8F8FB680022C3F89822002300220021D0
:1050C000F868FFF792F81CE0FB6893F89C32DBB2BB
:1050D000032B0FD1FB68D3F8B832DB68002B09D063
:1050E000FB680022C3F8D422FB68D3F8B832DB682F
:1050F000F86898478021F868FEF7CDFFF86801F05E
:10510000F2F8FB6893F8A032002B3AD0F868FFF76A
:1051100042FEFB68002283F8A02232E0FB7A63F0B3
:105120007F03DBB21946F86800F085F90346FB758A
:10513000FB7DFF2B25D0FB7D002B22D1FB6893F854
:105140009C32DBB2032B1CD1FA7DFB68AE3253F8E4
:1051500022305B69002B14D0FA7DFB68C3F8D4229F
:10516000FA7DFB68AE3253F822305B69FA7A114659
:10517000F86898470346BB75BB7D002B01D0BB7D0B
:1051800000E0002318461837BD4680BD80B584B0C6
:1051900000AF78600023FB737B68012283F89C22B8
:1051A0007B680022C3F894227B6800225A607B68E7
:1051B0000022C3F8A4227B68002283F8A0227B6827
:1051C000D3F8B832002B14D07B68D3F8B8325B68C0
:1051D000002B0ED07B68D3F8B8325B687A685268CF
:1051E000D2B21146786898470346002B01D00323BA
:1051F000FB734023002200217868FEF707FF7B68DD
:105200000122A3F864217B684022C3F86021402377
:10521000002280217868FEF7F9FE7B6801229A84DB
:105220007B6840221A62FB7B18461037BD4680BD62
:1052300080B483B000AF78600B46FB707B68FA786F
:105240001A74002318460C37BD465DF8047B70477E
:1052500080B483B000AF78607B6893F89C32DBB297
:10526000042B06D07B6893F89C32DAB27B6883F813
:105270009D227B68042283F89C22002318460C3769
:10528000BD465DF8047B704780B483B000AF7860A2
:105290007B6893F89C32DBB2042B06D17B6893F8D1
:1052A0009D32DAB27B6883F89C22002318460C37C3
:1052B000BD465DF8047B704780B582B000AF786072
:1052C0007B6893F89C32DBB2032B10D17B68D3F858
:1052D000B832002B0BD07B68D3F8B832DB69002BD7
:1052E00005D07B68D3F8B832DB697868984700232B
:1052F00018460837BD4680BD80B582B000AF7860E3
:105300000B46FB707B68D3F8D4227B68AE3253F82F
:105310002230002B01D103231CE07B6893F89C32E0
:10532000DBB2032B15D17B68D3F8D4227B68AE3275
:1053300053F822301B6A002B0BD07B68D3F8D422A1
:105340007B68AE3253F822301B6AFA7811467868CF
:105350009847002318460837BD4680BD80B582B007
:1053600000AF78600B46FB707B68D3F8D4227B6873
:10537000AE3253F82230002B01D103231CE07B68AE
:1053800093F89C32DBB2032B15D17B68D3F8D4227F
:105390007B68AE3253F822305B6A002B0BD07B68FF
:1053A000D3F8D4227B68AE3253F822305B6AFA78A5
:1053B000114678689847002318460837BD4680BDD7
:1053C00080B483B000AF7860002318460C37BD4628
:1053D0005DF8047B704780B584B000AF786000232F
:1053E000FB737B68012283F89C227B68D3F8B83278
:1053F000002B0ED07B68D3F8B8325B687A685268AD
:10540000D2B21146786898470346002B01D0032397
:10541000FB73FB7B18461037BD4680BD80B483B05C
:1054200000AF78600B46FB70002318460C37BD4672
:105430005DF8047B704780B483B000AF78600B46A2
:10544000FB70002318460C37BD465DF8047B70479F
:1054500080B586B000AF78600B46FB707B687B61DF
:105460007B68FB6000233B61FB685B889BB2FA684A
:10547000127893421FD9FB681B787B8113E007F1F8
:105480000A031946786900F01BF878617B695B783C
:10549000052B08D17B693B613B699B78FA789A427E
:1054A00008D000233B61FB685B889AB27B899A42F3
:1054B000E5D800E000BF3B6918461837BD4680BDFF
:1054C00080B485B000AF786039607B68FB603B6872
:1054D0001B88FA68127813449AB23B681A80FB68FA
:1054E0001B781A467B681344FB60FB681846143728
:1054F000BD465DF8047B704780B487B000AF78602C
:105500007B687B617B691B787B827B6901337B6174
:105510007B691B783B82B7F910301B021AB2B7F9CE
:10552000123013431BB2FB81FB8918461C37BD4662
:105530005DF8047B7047000080B584B000AF7860F0
:1055400039600023FB733B681B7803F06003402B3A
:1055500005D0402B57D8002B0FD0202B53D17B6880
:10556000D3F8D4227B68AE3253F822309B68396876
:10557000786898470346FB734AE03B685B78092BE1
:105580003BD801A252F823F0DD550008F155000880
:10559000FB550008E7550008FB550008BB550008FF
:1055A000B1550008FB550008D3550008C555000843
:1055B0003968786800F03CFA24E03968786800F0CF
:1055C000CBFB1FE03968786800F00AFC0346FB73E8
:1055D00018E03968786800F0ADFC13E03968786845
:1055E00000F0DEFC0EE03968786800F00DFD09E09F
:1055F0003968786800F031FD04E03968786800F0B7
:1056000088FD00BF04E03968786800F082FD00BFC3
:10561000FB7B18461037BD4680BD00BF80B584B007
:1056200000AF786039600023FB733B681B7803F0A0
:105630006003402B05D0402B52D8002B01D0202BEB
:105640004ED17B6893F89C32DBB2013B022B40D8F1
:105650003B689B88DBB2012B36D83B689B88DBB26A
:1056600019467868FFF7DAFE0346BB73BB7BFF2B56
:105670001DD0BB7B002B1AD1BA7B7B68AE3253F8AE
:1056800022309B68002B0FD0BA7B7B68C3F8D422F2
:10569000BA7B7B68AE3253F822309B6839687868F1
:1056A00098470346FB7304E00323FB7301E00323E5
:1056B000FB733B68DB88002B10D1FB7B002B0DD1EB
:1056C000786800F0FDFD09E03968786800F021FD98
:1056D00004E03968786800F01CFD00E000BF04E0D9
:1056E0003968786800F015FD00BFFB7B184610375D
:1056F000BD4680BD80B584B000AF786039600023BE
:10570000FB733B689B88BB733B681B7803F06003AB
:10571000402B07D0402B00F27F81002B2AD0202B7A
:1057200040F07A81BB7B19467868FFF784FE034618
:105730007B737B7BFF2B00F074817B7B002B40F025
:1057400070817A7B7B68C3F8D4227A7B7B68AE3227
:1057500053F822309B68002B00F063817A7B7B68D2
:10576000AE3253F822309B68396878689847034610
:10577000FB7356E13B685B78032B08D0032B00F3E7
:105780004581002B00F09B80012B3CD03EE17B68E3
:1057900093F89C32DBB2022B02D0032B16D02CE004
:1057A000BB7B002B0DD0BB7B802B0AD0BB7B19466B
:1057B0007868FEF770FC80217868FEF76CFC00BF0B
:1057C00020E03968786800F0A4FC1BE03B685B8847
:1057D000002B0ED1BB7B002B0BD0BB7B802B08D0CA
:1057E0003B68DB88002B04D1BB7B19467868FEF749
:1057F00052FC786800F064FD04E03968786800F0D5
:1058000088FC00BF07E17B6893F89C32DBB2022B77
:1058100002D0032B16D04BE0BB7B002B0DD0BB7B03
:10582000802B0AD0BB7B19467868FEF734FC8021B8
:105830007868FEF730FC00BF40E03968786800F017
:1058400068FC3BE03B685B88002B36D1BB7B03F0F8
:105850007F03002B04D0BB7B19467868FEF73AFC27
:10586000786800F02DFDBB7B19467868FFF7E3FDF3
:1058700003467B737B7BFF2B1FD07B7B002B1CD1D4
:105880007A7B7B68C3F8D4227A7B7B68AE3253F88C
:1058900022309B68002B10D07A7B7B68AE3253F8A5
:1058A00022309B683968786898470346FB7304E0A8
:1058B0003968786800F02DFC00E000BFABE07B6841
:1058C00093F89C32DBB2022B02D0032B32D097E04C
:1058D000BB7B002B07D0BB7B802B04D0396878685A
:1058E00000F017FC91E097F90E30002B0BDABB7B30
:1058F00003F07F0213469B0013449B0010337A6829
:10590000134404330BE0BB7B03F07F0213469B0080
:1059100013449B0003F5A8737A6813440433BB60F7
:10592000BB6800221A60BB6802221946786800F042
:105930006DFC6AE097F90E30002B11DABB7B03F0A7
:105940000F02796813469B0013449B000B442433D9
:105950001B88002B17D13968786800F0DAFB54E017
:10596000BB7B03F00F02796813469B0013449B0036
:105970000B4403F5B2731B88002B04D13968786897
:1059800000F0C7FB41E097F90E30002B0BDABB7B30
:1059900003F07F0213469B0013449B0010337A6888
:1059A000134404330BE0BB7B03F07F0213469B00E0
:1059B00013449B0003F5A8737A6813440433BB6057
:1059C000BB7B002B02D0BB7B802B03D1BB680022AA
:1059D0001A600EE0BB7B19467868FEF79AFB034617
:1059E000002B03D0BB6801221A6002E0BB680022D2
:1059F0001A60BB6802221946786800F007FC04E0D0
:105A00003968786800F085FB00BF04E03968786881
:105A100000F07FFB00BF05E03968786800F079FB93
:105A200000E000BFFB7B18461037BD4680BD00007C
:105A300080B584B000AF7860396000233B810023DB
:105A4000FB600023FB723B685B881B0A9BB2013B37
:105A50000E2B00F2528101A252F823F0CD5A000819
:105A6000E55A0008255B0008FB5C0008FB5C0008A9
:105A70009B5C0008C75C0008FB5C0008FB5C00083E
:105A8000FB5C0008FB5C0008FB5C0008FB5C00089A
:105A9000FB5C0008995A00087B68D3F8B432DB69D4
:105AA000002B0BD07B68D3F8B432DB697A68127CA8
:105AB00007F1080110469847F86026E139687868D0
:105AC00000F027FBFB7A0133FB721EE17B68D3F801
:105AD000B4321B687A68127C07F1080110469847B7
